[{"hash":"cd8d86502be2b8b46816054d9ae95ff749c3498c4844732b7a044bc0f6ae3880","mtime":1538591626,"version":1,"inputs":[{"prevout":{"hash":"c9c9d04edd4495104847a27a671b2d8416de8cd7d760a637cee46f2eccb8bbf6","index":1},"script":"483045022100ca597d9dad1d2011fafedb15e79f9f522ed7f448561184841015c4a43ca4e6d102203ec4ecb9d7de457ce1bdc9c1563cc5aaaa54d69cfde5701431b9e9b6a4e815bf412102b47ae680f4539ebd598a63486bfa155eac329e84ee03f6d7812bd7efc4f15920","sequence":4294967294,"address":"bchtest:qp8r34a0xl8fmjn37jxluzy9ufpy72xq8uq5hvr53q"}],"outputs":[{"value":99946539,"script":"76a91411c0a855448e3467cd666557527b840db3eb37b388ac","address":"bchtest:qqgup2z4gj8rge7dvej4w5nmssxm86ehkvj8wlggx2"},{"value":0,"script":"6a09696e7465726c696e6b20b13a49549b969b54f300403f9a7b6e604b8d42693af1b44506b124a321227a4d","address":null}],"locktime":0,"hex":"0100000001f6bbb8cc2e6fe4ce37a660d7d78cde16842d1b677aa24748109544dd4ed0c9c9010000006b483045022100ca597d9dad1d2011fafedb15e79f9f522ed7f448561184841015c4a43ca4e6d102203ec4ecb9d7de457ce1bdc9c1563cc5aaaa54d69cfde5701431b9e9b6a4e815bf412102b47ae680f4539ebd598a63486bfa155eac329e84ee03f6d7812bd7efc4f15920feffffff022b10f505000000001976a91411c0a855448e3467cd666557527b840db3eb37b388ac00000000000000002c6a09696e7465726c696e6b20b13a49549b969b54f300403f9a7b6e604b8d42693af1b44506b124a321227a4d00000000"}]