[{"hash":"5dd6799f16e4c8e6a9fae199914afff2af0cf16bcdbe479496dd0cd0ec819252","mtime":1538591626,"version":1,"inputs":[{"prevout":{"hash":"3e93dedda1da76d39c4ffdedbfa83d094c785df4afc4dd47d4237fbe1c81dc0d","index":1},"script":"4730440220028b103a411abf405f80a02ce8cb103125540f6d7d855d7b10583d73271031bb02206e63ca40a011723eaaec3dc48e80003f513cd0357417c9c4f228a1da23415cdb4121034f5f1bab6f94e3a93318af75b8ea9c97bc19ef1d46f7c2da790b2005e9cd8d92","sequence":4294967295,"address":"bchtest:qzrsuh8rcxtr8ehgc2qj2jrt4y0mt6p3py92juynf8"}],"outputs":[{"value":0,"script":"6a09696e7465726c696e6b20850b8990d1abcc6962fff4862caf786e78f12c76d53d05167a29a6e4b7bd361a","address":null},{"value":108278000,"script":"76a91405132f72917d6dd56d94c1e6353344830d8304f088ac","address":"bchtest:qqz3xtmjj97km4tdjnq7vdfngjpsmqcy7qcc2w5l2v"}],"locktime":0,"hex":"01000000010ddc811cbe7f23d447ddc4aff45d784c093da8bfedfd4f9cd376daa1ddde933e010000006a4730440220028b103a411abf405f80a02ce8cb103125540f6d7d855d7b10583d73271031bb02206e63ca40a011723eaaec3dc48e80003f513cd0357417c9c4f228a1da23415cdb4121034f5f1bab6f94e3a93318af75b8ea9c97bc19ef1d46f7c2da790b2005e9cd8d92ffffffff0200000000000000002c6a09696e7465726c696e6b20850b8990d1abcc6962fff4862caf786e78f12c76d53d05167a29a6e4b7bd361af0307406000000001976a91405132f72917d6dd56d94c1e6353344830d8304f088ac00000000"}]