[{"hash":"61fb12bcc92f6192a554b4f767546dbd951b056b6eb99d8206fea09fd3f9c120","mtime":1538591626,"version":1,"inputs":[{"prevout":{"hash":"f9e82d69a44e12fc4b6aab079b552a7740f7ee1096ab6b4a076ce9155a94a67d","index":0},"script":"483045022100e3956481f68e48318f7d788b4a65eef0c2fb8f89af4a5bca86d03449ded83f1302200f4dcac5ee606227f965867125693b4fd44bc01599454d28ed3a1f82c0fa1c2d41210294431671f9ff741b614b19ab2f400ae4ce7067c6d9e41ac9514bc812387fd180","sequence":4294967294,"address":"bchtest:qz2uf5j45frnu7x4l4rx0mjn9nuglez8xsmsy663ev"}],"outputs":[{"value":0,"script":"6a09696e7465726c696e6b20135efed8a49f8b0def7f5dabc39a6c8fee3ca882927898f24b44ae216f246703","address":null},{"value":99945475,"script":"76a914e73280a8823e15d2da61e31e5d68acd101c3a6eb88ac","address":"bchtest:qrnn9q9gsglpt5k6v833uhtg4ngsrsaxavxf9a5usy"}],"locktime":0,"hex":"01000000017da6945a15e96c074a6bab9610eef740772a559b07ab6a4bfc124ea4692de8f9000000006b483045022100e3956481f68e48318f7d788b4a65eef0c2fb8f89af4a5bca86d03449ded83f1302200f4dcac5ee606227f965867125693b4fd44bc01599454d28ed3a1f82c0fa1c2d41210294431671f9ff741b614b19ab2f400ae4ce7067c6d9e41ac9514bc812387fd180feffffff0200000000000000002c6a09696e7465726c696e6b20135efed8a49f8b0def7f5dabc39a6c8fee3ca882927898f24b44ae216f246703030cf505000000001976a914e73280a8823e15d2da61e31e5d68acd101c3a6eb88ac00000000"}]