[{"hash":"d4c9079fff7c2d4399a26e5a9bf288a9feb1f5eedc7950578b392ce336c29da6","mtime":1538591626,"version":1,"inputs":[{"prevout":{"hash":"5dd6799f16e4c8e6a9fae199914afff2af0cf16bcdbe479496dd0cd0ec819252","index":1},"script":"4830450221009c385c99d8ff78e6cd6e843158e055f339c4aaef85381d84cb721f8be14f59e002202b9f53e0001cd00059809bda7f9ce45dc8b768626727e70fa63f5ada7378e7fb412103930cb5f5dd464ce104ce9a03294dd1780c2f99649224b4a3502ec4cc65e25f5f","sequence":4294967295,"address":"bchtest:qqz3xtmjj97km4tdjnq7vdfngjpsmqcy7qcc2w5l2v"}],"outputs":[{"value":0,"script":"6a09696e7465726c696e6b20d799d09a3b58e342a42f44c1a4f14fd5f2b85795e19a5de319f8cbf82ff991f3","address":null},{"value":108273080,"script":"76a914f9b7befb999fbb3374af56dc545beec681b19fe888ac","address":"bchtest:qrum00hmnx0mkvm54atdc4zmamrgrvvlaqqpv5xfeq"}],"locktime":0,"hex":"0100000001529281ecd00cdd969447becd6bf10caff2ff4a9199e1faa9e6c8e4169f79d65d010000006b4830450221009c385c99d8ff78e6cd6e843158e055f339c4aaef85381d84cb721f8be14f59e002202b9f53e0001cd00059809bda7f9ce45dc8b768626727e70fa63f5ada7378e7fb412103930cb5f5dd464ce104ce9a03294dd1780c2f99649224b4a3502ec4cc65e25f5fffffffff0200000000000000002c6a09696e7465726c696e6b20d799d09a3b58e342a42f44c1a4f14fd5f2b85795e19a5de319f8cbf82ff991f3b81d7406000000001976a914f9b7befb999fbb3374af56dc545beec681b19fe888ac00000000"}]