[{"hash":"9923310ef891b0f92b00b07a82bda50490126ab2bfbb96432cf10689cb171953","mtime":1538591626,"version":1,"inputs":[{"prevout":{"hash":"5fdd09ab7e54c1473282e156cc3d6dc227e2adc72a2bc3eb95e2ae25b4ac439e","index":1},"script":"483045022100c6a339fb0033c4aca162e70c2e4eba61d7658abac63dfe738950a29c0d691cba02205797e804eb2446368203bdd7ab8b8ed54d981c6c7aa7b8d970cee9247393e311412102a19eaf00b0a1ed78b76733975ca2c735a3bacf0dda47161d4d6ac5381bd36197","sequence":4294967295,"address":"bchtest:qr5v77u2lk6ahzu0heelylez5rq0q7cn3yjhglv7qd"}],"outputs":[{"value":0,"script":"6a09696e7465726c696e6b20ee638ea26728b93237eed0789ebc8d0040e9e90a0b38f621a33939bf3069dd08","address":null},{"value":108253400,"script":"76a9142f2b25cdb3e60f0f09e9a96e9cedcc94c06f338788ac","address":"bchtest:qqhjkfwdk0nq7rcfax5ka88dej2vqmensuhvqje38c"}],"locktime":0,"hex":"01000000019e43acb425aee295ebc32b2ac7ade227c26d3dcc56e1823247c1547eab09dd5f010000006b483045022100c6a339fb0033c4aca162e70c2e4eba61d7658abac63dfe738950a29c0d691cba02205797e804eb2446368203bdd7ab8b8ed54d981c6c7aa7b8d970cee9247393e311412102a19eaf00b0a1ed78b76733975ca2c735a3bacf0dda47161d4d6ac5381bd36197ffffffff0200000000000000002c6a09696e7465726c696e6b20ee638ea26728b93237eed0789ebc8d0040e9e90a0b38f621a33939bf3069dd08d8d07306000000001976a9142f2b25cdb3e60f0f09e9a96e9cedcc94c06f338788ac00000000"},{"hash":"f9e82d69a44e12fc4b6aab079b552a7740f7ee1096ab6b4a076ce9155a94a67d","mtime":1538591626,"version":1,"inputs":[{"prevout":{"hash":"5eeb068f6c8fdcfaebc93f5ff3ebfc6b473320038b5d7e2d69a3b1f85a27dcd4","index":0},"script":"47304402207fe4f2496488bcaa6d92716128866453c5c2c39d881bebd0487d4a615fa5a08d02203552f57efd0b6b95170bbabacb292361457ec08448503022f95b5ea2059b301a412103946f8fa743cf6aeaf323c26d6ee159b98561ff2890c456b935a9a119df064574","sequence":4294967294,"address":"bchtest:qpa79wlf95jd937pdqmhv6m8z5rrwyh4hswz0dl454"}],"outputs":[{"value":99945741,"script":"76a91495c4d255a2473e78d5fd4667ee532cf88fe4473488ac","address":"bchtest:qz2uf5j45frnu7x4l4rx0mjn9nuglez8xsmsy663ev"},{"value":0,"script":"6a09696e7465726c696e6b20ee638ea26728b93237eed0789ebc8d0040e9e90a0b38f621a33939bf3069dd08","address":null}],"locktime":0,"hex":"0100000001d4dc275af8b1a3692d7e5d8b032033476bfcebf35f3fc9ebfadc8f6c8f06eb5e000000006a47304402207fe4f2496488bcaa6d92716128866453c5c2c39d881bebd0487d4a615fa5a08d02203552f57efd0b6b95170bbabacb292361457ec08448503022f95b5ea2059b301a412103946f8fa743cf6aeaf323c26d6ee159b98561ff2890c456b935a9a119df064574feffffff020d0df505000000001976a91495c4d255a2473e78d5fd4667ee532cf88fe4473488ac00000000000000002c6a09696e7465726c696e6b20ee638ea26728b93237eed0789ebc8d0040e9e90a0b38f621a33939bf3069dd0800000000"}]