[{"hash":"3e93dedda1da76d39c4ffdedbfa83d094c785df4afc4dd47d4237fbe1c81dc0d","mtime":1538591626,"version":1,"inputs":[{"prevout":{"hash":"1dc535f2cf3e550773497485adba01ef93630bcdb6a7af8b5ea0122b6553b181","index":1},"script":"47304402201d29c86b2b5e02d18425ca982804855ad3197ce563df6b1a0fe68cb865e9672202203d796a3e9da69fa9d860139e36372fc2c313f095667687842bfee22b5ae3a07441210210ee2e7b749ef315a1dfc144c94814233f9b8d9661b1131adbf8d71c48904f79","sequence":4294967295,"address":"bchtest:qpjr5lhms9k55qrsd7udsk40pn0nxtqg9c05m7vypl"}],"outputs":[{"value":0,"script":"6a09696e7465726c696e6b2023a92556d09f807d17655ee55620625b48f166cc8a6c83aa2d89f87d7a1fddac","address":null},{"value":108282920,"script":"76a914870e5ce3c19633e6e8c28125486ba91fb5e8310988ac","address":"bchtest:qzrsuh8rcxtr8ehgc2qj2jrt4y0mt6p3py92juynf8"}],"locktime":0,"hex":"010000000181b153652b12a05e8bafa7b6cd0b6393ef01baad8574497307553ecff235c51d010000006a47304402201d29c86b2b5e02d18425ca982804855ad3197ce563df6b1a0fe68cb865e9672202203d796a3e9da69fa9d860139e36372fc2c313f095667687842bfee22b5ae3a07441210210ee2e7b749ef315a1dfc144c94814233f9b8d9661b1131adbf8d71c48904f79ffffffff0200000000000000002c6a09696e7465726c696e6b2023a92556d09f807d17655ee55620625b48f166cc8a6c83aa2d89f87d7a1fddac28447406000000001976a914870e5ce3c19633e6e8c28125486ba91fb5e8310988ac00000000"}]