[{"hash":"86630110344a76a41956fb8866835487b8bcd1998d9bbc7c79c9153e63e907a9","mtime":1538591626,"version":1,"inputs":[{"prevout":{"hash":"a20949a2316e18e4df8566722dc783c7d5b09091391201a9474526754631b0ac","index":1},"script":"483045022100f331e363c5ccb9e808c7cfe8a5bd32097da32826a6aeb8fc2f28b9ce85a333dc022075718274720821f2b41ff15f1de592ff6248344c013e453ae1c433c34699349b412102cc153dcb4dbe0e343afdcebfca4ad585de6cb4c897dfeb1ab2ba821437d878f4","sequence":4294967294,"address":"bchtest:qr7m0e9j6uw2l6ctpecm266ka5yumqjjpuexjeqz38"}],"outputs":[{"value":0,"script":"6a09696e7465726c696e6b2017544a96c9a9abbabcf799a466c5258d38593584a8e0780caef71b6c08676a59","address":null},{"value":99953431,"script":"76a9148b4827747e0543a9525d61f9d3077dfec905793d88ac","address":"bchtest:qz95sfm50cz5822jt4sln5c80hlvjpte85csefrhs0"}],"locktime":0,"hex":"0100000001acb0314675264547a90112399190b0d5c783c72d726685dfe4186e31a24909a2010000006b483045022100f331e363c5ccb9e808c7cfe8a5bd32097da32826a6aeb8fc2f28b9ce85a333dc022075718274720821f2b41ff15f1de592ff6248344c013e453ae1c433c34699349b412102cc153dcb4dbe0e343afdcebfca4ad585de6cb4c897dfeb1ab2ba821437d878f4feffffff0200000000000000002c6a09696e7465726c696e6b2017544a96c9a9abbabcf799a466c5258d38593584a8e0780caef71b6c08676a59172bf505000000001976a9148b4827747e0543a9525d61f9d3077dfec905793d88ac00000000"},{"hash":"4e1c6c911974cb3edabe5d0e51223a119e6bbde748b1683f868f1cf8865ae26a","mtime":1538591626,"version":1,"inputs":[{"prevout":{"hash":"86630110344a76a41956fb8866835487b8bcd1998d9bbc7c79c9153e63e907a9","index":1},"script":"4830450221008d3e7012740bae1a239bd50c1a0c4deaefa57946ecfb85ea329139970665a34f022004c33466a310634a60bf074fe40b7c96642a390129a6a27c14845b7b1d8c4fdf412103e8988e8f4a98b8c788e2e1802e9518cbb165deab6edaf8940066358597baa360","sequence":4294967294,"address":"bchtest:qz95sfm50cz5822jt4sln5c80hlvjpte85csefrhs0"}],"outputs":[{"value":0,"script":"6a09696e7465726c696e6b20cbb465f43779315570d3b7552fc473dd789fb13360019fd42f0576717c2f28ef","address":null},{"value":99953166,"script":"76a914a61119a16dc350fa8bd8487189c29dd40775819188ac","address":"bchtest:qznpzxdpdhp4p75tmpy8rzwznh2qwavpjyp63ymlly"}],"locktime":0,"hex":"0100000001a907e9633e15c9797cbc9b8d99d1bcb88754836688fb5619a4764a3410016386010000006b4830450221008d3e7012740bae1a239bd50c1a0c4deaefa57946ecfb85ea329139970665a34f022004c33466a310634a60bf074fe40b7c96642a390129a6a27c14845b7b1d8c4fdf412103e8988e8f4a98b8c788e2e1802e9518cbb165deab6edaf8940066358597baa360feffffff0200000000000000002c6a09696e7465726c696e6b20cbb465f43779315570d3b7552fc473dd789fb13360019fd42f0576717c2f28ef0e2af505000000001976a914a61119a16dc350fa8bd8487189c29dd40775819188ac00000000"},{"hash":"916be0377cf1d7dc32cb9b48958fe9d8af573da8546024655da4346838b15ce6","mtime":1538591626,"version":1,"inputs":[{"prevout":{"hash":"4e1c6c911974cb3edabe5d0e51223a119e6bbde748b1683f868f1cf8865ae26a","index":1},"script":"483045022100e1d41e3f62d8432dc72b62200f9d77446ec9bdea0eaadbd553c86c4716b54396022036d0f070cb098026ba3e84978864a8f393575804a83bb8f5474055d5034e521b412103380d5ca86c116aae5ac26d64291fe1636f18876341481f16470d4fc997438964","sequence":4294967294,"address":"bchtest:qznpzxdpdhp4p75tmpy8rzwznh2qwavpjyp63ymlly"}],"outputs":[{"value":0,"script":"6a09696e7465726c696e6b205eeebc27871751e57eb269d26e66908da77597173cc7c6597bc61de4406a7c46","address":null},{"value":99952901,"script":"76a914d18051b48fbec78eeec38fd51ca46cd8c8627f8888ac","address":"bchtest:qrgcq5d537lv0rhwcw8a289ydnvvscnl3qz4cz2jrq"}],"locktime":0,"hex":"01000000016ae25a86f81c8f863f68b148e7bd6b9e113a22510e5dbeda3ecb7419916c1c4e010000006b483045022100e1d41e3f62d8432dc72b62200f9d77446ec9bdea0eaadbd553c86c4716b54396022036d0f070cb098026ba3e84978864a8f393575804a83bb8f5474055d5034e521b412103380d5ca86c116aae5ac26d64291fe1636f18876341481f16470d4fc997438964feffffff0200000000000000002c6a09696e7465726c696e6b205eeebc27871751e57eb269d26e66908da77597173cc7c6597bc61de4406a7c460529f505000000001976a914d18051b48fbec78eeec38fd51ca46cd8c8627f8888ac00000000"},{"hash":"3765d06b20a6c633735b9c3094e0d66ba153fd70883346c5032b3741f1b0f920","mtime":1538591626,"version":1,"inputs":[{"prevout":{"hash":"916be0377cf1d7dc32cb9b48958fe9d8af573da8546024655da4346838b15ce6","index":1},"script":"47304402206d740b445d37ffaa0a6a9ebdd3747d0c2ba5e54396665bdeb614eb15b6f8f353022041c6749a41de09dcca402b861e41dc3185d7a27e9e38a24969a7f62642964f60412102e966eea93cad87c5d93042376cf46711aedd7d2ba347231241f396e02036ace5","sequence":4294967294,"address":"bchtest:qrgcq5d537lv0rhwcw8a289ydnvvscnl3qz4cz2jrq"}],"outputs":[{"value":99952636,"script":"76a914527fb3739a5d96a4a822f53a4fb8d8fd6a3d71f688ac","address":"bchtest:qpf8lvmnnfwedf9gyt6n5nacmr7k50t37c8htv0j4l"},{"value":0,"script":"6a09696e7465726c696e6b203bc401b2c41b06fc81f591c6a2992a8fa88c71a34f7911b944ab1d7611b15b13","address":null}],"locktime":0,"hex":"0100000001e65cb1386834a45d65246054a83d57afd8e98f95489bcb32dcd7f17c37e06b91010000006a47304402206d740b445d37ffaa0a6a9ebdd3747d0c2ba5e54396665bdeb614eb15b6f8f353022041c6749a41de09dcca402b861e41dc3185d7a27e9e38a24969a7f62642964f60412102e966eea93cad87c5d93042376cf46711aedd7d2ba347231241f396e02036ace5feffffff02fc27f505000000001976a914527fb3739a5d96a4a822f53a4fb8d8fd6a3d71f688ac00000000000000002c6a09696e7465726c696e6b203bc401b2c41b06fc81f591c6a2992a8fa88c71a34f7911b944ab1d7611b15b1300000000"},{"hash":"490f559999eacac3f9b73093fe8f46ba7d9d93798e6b6b6caad8df93e7a16263","mtime":1538591626,"version":1,"inputs":[{"prevout":{"hash":"3765d06b20a6c633735b9c3094e0d66ba153fd70883346c5032b3741f1b0f920","index":0},"script":"48304502210090c0482bc52d6695d1a19a86c9db49bb1417a334e5f70bdacbfb71aba8c9cc86022077908dc0c4448095c340069903a4c56015235e20a854a5581724808185a308224121031ddf260669e99050a38d0103c2e6b15e4f63618bc49747a3b6e1e8cd9d04fc58","sequence":4294967294,"address":"bchtest:qpf8lvmnnfwedf9gyt6n5nacmr7k50t37c8htv0j4l"}],"outputs":[{"value":0,"script":"6a09696e7465726c696e6b201eba8a170a8e7b85b2a6a2acdd4e7243c6318f1c8e12d53f22fe7aadabbaa3a0","address":null},{"value":99952371,"script":"76a91430a50f38c002b3659db5d0d77a7d29851958575f88ac","address":"bchtest:qqc22reccqptxevakhgdw7na9xz3jkzhtuse4l2n2x"}],"locktime":0,"hex":"010000000120f9b0f141372b03c546338870fd53a16bd6e094309c5b7333c6a6206bd06537000000006b48304502210090c0482bc52d6695d1a19a86c9db49bb1417a334e5f70bdacbfb71aba8c9cc86022077908dc0c4448095c340069903a4c56015235e20a854a5581724808185a308224121031ddf260669e99050a38d0103c2e6b15e4f63618bc49747a3b6e1e8cd9d04fc58feffffff0200000000000000002c6a09696e7465726c696e6b201eba8a170a8e7b85b2a6a2acdd4e7243c6318f1c8e12d53f22fe7aadabbaa3a0f326f505000000001976a91430a50f38c002b3659db5d0d77a7d29851958575f88ac00000000"},{"hash":"81de32f77bd0cf6fadd0ac2452d17fa37f94188147c0e9e49760901f1d73f2c5","mtime":1538591626,"version":1,"inputs":[{"prevout":{"hash":"490f559999eacac3f9b73093fe8f46ba7d9d93798e6b6b6caad8df93e7a16263","index":1},"script":"47304402202c81fa706cb22b5408b1d320fdbf735ac1ec4635fb88b638ea707b5b245c592602204148d727f9ee6ebc3094e1aac781082f4bfaab7dd259ca73272364619b525e3441210264c11288654f6e22e7ce0abcc100a7d3c35b6f0843093f38b48d1b3632f4e7cf","sequence":4294967294,"address":"bchtest:qqc22reccqptxevakhgdw7na9xz3jkzhtuse4l2n2x"}],"outputs":[{"value":99952106,"script":"76a914f9190606f61a9d407c53b68f4c21f519291a3c6388ac","address":"bchtest:qru3jpsx7cdf6sru2wmg7npp75vjjx3uvvp4ce324t"},{"value":0,"script":"6a09696e7465726c696e6b20a23c61f50c79bbbe6e8d66a183a196e402884c739661e192ceb511dd72d1f487","address":null}],"locktime":0,"hex":"01000000016362a1e793dfd8aa6c6b6b8e79939d7dba468ffe9330b7f9c3caea9999550f49010000006a47304402202c81fa706cb22b5408b1d320fdbf735ac1ec4635fb88b638ea707b5b245c592602204148d727f9ee6ebc3094e1aac781082f4bfaab7dd259ca73272364619b525e3441210264c11288654f6e22e7ce0abcc100a7d3c35b6f0843093f38b48d1b3632f4e7cffeffffff02ea25f505000000001976a914f9190606f61a9d407c53b68f4c21f519291a3c6388ac00000000000000002c6a09696e7465726c696e6b20a23c61f50c79bbbe6e8d66a183a196e402884c739661e192ceb511dd72d1f48700000000"},{"hash":"c2699153972fba786be80d12775da75e38d1e0f2690324bd4e516fc2cc2273bb","mtime":1538591626,"version":1,"inputs":[{"prevout":{"hash":"81de32f77bd0cf6fadd0ac2452d17fa37f94188147c0e9e49760901f1d73f2c5","index":0},"script":"47304402201b7d21c2bf555c1b574075b6c925fb9ae0a63fc3177fe0f1ffa65bef2ab53152022028a594080ebdec99ffe6bce4e24759bc70ae28511d0768cf11c5686170c970fe4121026e67812a77e51404c3fa2b69d320b9cb78f90b89757c20262cd4c6ca10316111","sequence":4294967294,"address":"bchtest:qru3jpsx7cdf6sru2wmg7npp75vjjx3uvvp4ce324t"}],"outputs":[{"value":99951841,"script":"76a91487dd678edce4e6dd1d4ed6736df79afb7f34ff9e88ac","address":"bchtest:qzra6euwmnjwdhgafmt8xm0hntah7d8lncn3ahh6av"},{"value":0,"script":"6a09696e7465726c696e6b20a778927b44f1985a88e29901814bc77f2f3a465cf27b65e6192832e0bc3c6d63","address":null}],"locktime":0,"hex":"0100000001c5f2731d1f906097e4e9c0478118947fa37fd15224acd0ad6fcfd07bf732de81000000006a47304402201b7d21c2bf555c1b574075b6c925fb9ae0a63fc3177fe0f1ffa65bef2ab53152022028a594080ebdec99ffe6bce4e24759bc70ae28511d0768cf11c5686170c970fe4121026e67812a77e51404c3fa2b69d320b9cb78f90b89757c20262cd4c6ca10316111feffffff02e124f505000000001976a91487dd678edce4e6dd1d4ed6736df79afb7f34ff9e88ac00000000000000002c6a09696e7465726c696e6b20a778927b44f1985a88e29901814bc77f2f3a465cf27b65e6192832e0bc3c6d6300000000"},{"hash":"6ac263e244f1bac1862cb471cd95968d0d846fadf7efaae4af125f9ed31a1088","mtime":1538591626,"version":1,"inputs":[{"prevout":{"hash":"c2699153972fba786be80d12775da75e38d1e0f2690324bd4e516fc2cc2273bb","index":0},"script":"47304402203fcedd2e3bdbb3cfe686fa09c80b6764fd20674a87b492b9d5189f2b7befa50a0220545532863cac4d1e07b435fef9f487da58e8bac9a2b7b31154a2d506c2f8c68d412103b383caef19e630b9a2e676e014281c6a1d809ccaa7ed840c854a2d8f1733af6a","sequence":4294967294,"address":"bchtest:qzra6euwmnjwdhgafmt8xm0hntah7d8lncn3ahh6av"}],"outputs":[{"value":99951576,"script":"76a9146fe623053bafab0125aa895b3a87631a4595eda588ac","address":"bchtest:qph7vgc98wh6kqf942y4kw58vvdyt90d55rmzgkggq"},{"value":0,"script":"6a09696e7465726c696e6b201bd6b54d384967296b8d38cb2da0baa6e822a41a20020c9a2717137d7aa9085e","address":null}],"locktime":0,"hex":"0100000001bb7322ccc26f514ebd240369f2e0d1385ea75d77120de86b78ba2f97539169c2000000006a47304402203fcedd2e3bdbb3cfe686fa09c80b6764fd20674a87b492b9d5189f2b7befa50a0220545532863cac4d1e07b435fef9f487da58e8bac9a2b7b31154a2d506c2f8c68d412103b383caef19e630b9a2e676e014281c6a1d809ccaa7ed840c854a2d8f1733af6afeffffff02d823f505000000001976a9146fe623053bafab0125aa895b3a87631a4595eda588ac00000000000000002c6a09696e7465726c696e6b201bd6b54d384967296b8d38cb2da0baa6e822a41a20020c9a2717137d7aa9085e00000000"},{"hash":"8dedbf44db387f6fb7bdb393e07997a2a8db1aad8cf5663c96cea89f61c01175","mtime":1538591626,"version":1,"inputs":[{"prevout":{"hash":"6ac263e244f1bac1862cb471cd95968d0d846fadf7efaae4af125f9ed31a1088","index":0},"script":"47304402206e0dae498e9e3696a34c3fb9b710e85a2a5b523ec27bcc3176046608aa0d82bc022006fd5c83ab81b51190f1ae38cea52cc88e0383f3f51bc1f70853b87d02966329412102bcb349c882a180d682cfc0ecc7adc015bcc222935a0310d6c3d03b89d1c18c7c","sequence":4294967294,"address":"bchtest:qph7vgc98wh6kqf942y4kw58vvdyt90d55rmzgkggq"}],"outputs":[{"value":0,"script":"6a09696e7465726c696e6b2007db329e99fe6cf1c267267b1425f64702961e01f0a4fe518558a19a28d4fb81","address":null},{"value":99951311,"script":"76a914357046306c5f4a69f30390f604ec883f7e56911b88ac","address":"bchtest:qq6hq33sd305560nqwg0vp8v3qlhu453rvrwczhqrt"}],"locktime":0,"hex":"010000000188101ad39e5f12afe4aaeff7ad6f840d8d9695cd71b42c86c1baf144e263c26a000000006a47304402206e0dae498e9e3696a34c3fb9b710e85a2a5b523ec27bcc3176046608aa0d82bc022006fd5c83ab81b51190f1ae38cea52cc88e0383f3f51bc1f70853b87d02966329412102bcb349c882a180d682cfc0ecc7adc015bcc222935a0310d6c3d03b89d1c18c7cfeffffff0200000000000000002c6a09696e7465726c696e6b2007db329e99fe6cf1c267267b1425f64702961e01f0a4fe518558a19a28d4fb81cf22f505000000001976a914357046306c5f4a69f30390f604ec883f7e56911b88ac00000000"},{"hash":"02e20298691e885afce2bfbb435fe0ac0752162f08b8768158132b51240d9f67","mtime":1538591626,"version":1,"inputs":[{"prevout":{"hash":"8dedbf44db387f6fb7bdb393e07997a2a8db1aad8cf5663c96cea89f61c01175","index":1},"script":"483045022100a59489d199206f274001e83a8dcd24cc71e4bec550cb09814d1a38397579193a02205f73ecc33ac9007bcb7b1064e75e6d060d201356658649be9c53fa88948e1fc3412103acac6104a6a38c9b8e0d83e68650a73fac61d73ff5f0b909ebf0bbd96a7ad0de","sequence":4294967294,"address":"bchtest:qq6hq33sd305560nqwg0vp8v3qlhu453rvrwczhqrt"}],"outputs":[{"value":0,"script":"6a09696e7465726c696e6b209797e1d18e74327c4982194a9f17ec27ab0b1d3be60cde4ccce83bd28420373f","address":null},{"value":99951046,"script":"76a9147a3202317b3b3ee5b601278c13f96a042613c72888ac","address":"bchtest:qparyq330vanaedkqynccyledgzzvy789qtx6f5nud"}],"locktime":0,"hex":"01000000017511c0619fa8ce963c66f58cad1adba8a29779e093b3bdb76f7f38db44bfed8d010000006b483045022100a59489d199206f274001e83a8dcd24cc71e4bec550cb09814d1a38397579193a02205f73ecc33ac9007bcb7b1064e75e6d060d201356658649be9c53fa88948e1fc3412103acac6104a6a38c9b8e0d83e68650a73fac61d73ff5f0b909ebf0bbd96a7ad0defeffffff0200000000000000002c6a09696e7465726c696e6b209797e1d18e74327c4982194a9f17ec27ab0b1d3be60cde4ccce83bd28420373fc621f505000000001976a9147a3202317b3b3ee5b601278c13f96a042613c72888ac00000000"},{"hash":"191abee47cb5ee58d4b9c1cdf874ff5097d3ed0ad178835ae268cbb6c9a42eee","mtime":1538591626,"version":1,"inputs":[{"prevout":{"hash":"02e20298691e885afce2bfbb435fe0ac0752162f08b8768158132b51240d9f67","index":1},"script":"47304402203100fb2b45ca92255d22e0ccefbba0f3fb039fa470eb5a4e530e7448f065965002203bb1f0122a0c81e455e581515840d99fec856b29402ccf18adfd760395313da4412102b72c4ec24dbb9f5f12a76cb52c5b67965cb26adf4985567b76c64f1630b997f8","sequence":4294967294,"address":"bchtest:qparyq330vanaedkqynccyledgzzvy789qtx6f5nud"}],"outputs":[{"value":0,"script":"6a09696e7465726c696e6b2071ea6141710ffb2cee8a3bf1ff85abe6041fd86c40e98ee96e3309add3984f29","address":null},{"value":99950781,"script":"76a914d63522e367e073e492012cdb33e0aeac0c80a94c88ac","address":"bchtest:qrtr2ghrvls88eyjqykdkvlq46kqeq9ffsttglp0ez"}],"locktime":0,"hex":"0100000001679f0d24512b13588176b8082f165207ace05f43bbbfe2fc5a881e699802e202010000006a47304402203100fb2b45ca92255d22e0ccefbba0f3fb039fa470eb5a4e530e7448f065965002203bb1f0122a0c81e455e581515840d99fec856b29402ccf18adfd760395313da4412102b72c4ec24dbb9f5f12a76cb52c5b67965cb26adf4985567b76c64f1630b997f8feffffff0200000000000000002c6a09696e7465726c696e6b2071ea6141710ffb2cee8a3bf1ff85abe6041fd86c40e98ee96e3309add3984f29bd20f505000000001976a914d63522e367e073e492012cdb33e0aeac0c80a94c88ac00000000"},{"hash":"7acd6281588060f621b83fd01dc6d979ed44a3cb2586ba531ea9d6ca8f803e00","mtime":1538591626,"version":1,"inputs":[{"prevout":{"hash":"191abee47cb5ee58d4b9c1cdf874ff5097d3ed0ad178835ae268cbb6c9a42eee","index":1},"script":"483045022100ac87085d12801f66e08bccd9efc0b462482e2236a3da514336ab52cbe7592a1902202de354df54d602a4d5412e56a919232103c597e056fbaeb64c0b633c5c33d6ac412103ff8c727a9251ea6497704808aab7de96a9696ec7141876a03ebd494eaaa59a4d","sequence":4294967294,"address":"bchtest:qrtr2ghrvls88eyjqykdkvlq46kqeq9ffsttglp0ez"}],"outputs":[{"value":99950516,"script":"76a914ac3b478c0c4f42f964c6201125cbf0ea7559882a88ac","address":"bchtest:qzkrk3uvp38597tyccspzfwt7r482kvg9gkqc5nkpk"},{"value":0,"script":"6a09696e7465726c696e6b2062b9fd4df722c3e94f164ab0f6f644bbb3c475bbcdfb13df6e7b2dc61c10246e","address":null}],"locktime":0,"hex":"0100000001ee2ea4c9b6cb68e25a8378d10aedd39750ff74f8cdc1b9d458eeb57ce4be1a19010000006b483045022100ac87085d12801f66e08bccd9efc0b462482e2236a3da514336ab52cbe7592a1902202de354df54d602a4d5412e56a919232103c597e056fbaeb64c0b633c5c33d6ac412103ff8c727a9251ea6497704808aab7de96a9696ec7141876a03ebd494eaaa59a4dfeffffff02b41ff505000000001976a914ac3b478c0c4f42f964c6201125cbf0ea7559882a88ac00000000000000002c6a09696e7465726c696e6b2062b9fd4df722c3e94f164ab0f6f644bbb3c475bbcdfb13df6e7b2dc61c10246e00000000"},{"hash":"ff0bc67c0550498bd1ca93c694310ca6bafe641662d14ba7cb7080f1ac91df55","mtime":1538591626,"version":1,"inputs":[{"prevout":{"hash":"7acd6281588060f621b83fd01dc6d979ed44a3cb2586ba531ea9d6ca8f803e00","index":0},"script":"4730440220370bb3c60ae58ce03d1f57b01f5a7ebd3b5626dd10f1b5201e59bd2d93ece3590220158232d6f77aed48c2e9feaa7f48b7ff5512fb3d293b6ec82ebf00fe11d9573f412102471e47ed244c01096325fa2197f327bda6b675c9940fe08ccd0a3ec6ce58ca92","sequence":4294967294,"address":"bchtest:qzkrk3uvp38597tyccspzfwt7r482kvg9gkqc5nkpk"}],"outputs":[{"value":0,"script":"6a09696e7465726c696e6b20965f10f71fa1e44d7572624736e652a907e892333ff5b6e7d374906dead0e13d","address":null},{"value":99950251,"script":"76a9146e24c34607dd4050900019ca3c2732921454764988ac","address":"bchtest:qphzfs6xqlw5q5ysqqvu50p8x2fpg4rkfykzy5z7gr"}],"locktime":0,"hex":"0100000001003e808fcad6a91e53ba8625cba344ed79d9c61dd03fb821f66080588162cd7a000000006a4730440220370bb3c60ae58ce03d1f57b01f5a7ebd3b5626dd10f1b5201e59bd2d93ece3590220158232d6f77aed48c2e9feaa7f48b7ff5512fb3d293b6ec82ebf00fe11d9573f412102471e47ed244c01096325fa2197f327bda6b675c9940fe08ccd0a3ec6ce58ca92feffffff0200000000000000002c6a09696e7465726c696e6b20965f10f71fa1e44d7572624736e652a907e892333ff5b6e7d374906dead0e13dab1ef505000000001976a9146e24c34607dd4050900019ca3c2732921454764988ac00000000"},{"hash":"35126b442dd58d3f9fc1e29e53a7be08ecd5e78b72d0fc385243957eb824dcce","mtime":1538591626,"version":1,"inputs":[{"prevout":{"hash":"ff0bc67c0550498bd1ca93c694310ca6bafe641662d14ba7cb7080f1ac91df55","index":1},"script":"47304402202f8c875abe668364656f7132eee3ea0c3907c898e38d3a704169d31846e9fbce02202050b9f7540345e52a762b38ad0f3497f83ab42d26654dd4b78cc4ddf41ec5aa412103977e7e638a09dc75d9e4abfc190d9d703499307f6ac4554352e71222a7a4acfa","sequence":4294967294,"address":"bchtest:qphzfs6xqlw5q5ysqqvu50p8x2fpg4rkfykzy5z7gr"}],"outputs":[{"value":0,"script":"6a09696e7465726c696e6b2043d534eaf3fc69eb08944f47ec400d24c9f73477be4d8a92c8634372aac84438","address":null},{"value":99949986,"script":"76a914108c80728284f554b716fd075d58223f5f8bb98888ac","address":"bchtest:qqggeqrjs2z0249hzm7swh2cygl4lzae3q840u7x2v"}],"locktime":0,"hex":"010000000155df91acf18070cba74bd1621664febaa60c3194c693cad18b4950057cc60bff010000006a47304402202f8c875abe668364656f7132eee3ea0c3907c898e38d3a704169d31846e9fbce02202050b9f7540345e52a762b38ad0f3497f83ab42d26654dd4b78cc4ddf41ec5aa412103977e7e638a09dc75d9e4abfc190d9d703499307f6ac4554352e71222a7a4acfafeffffff0200000000000000002c6a09696e7465726c696e6b2043d534eaf3fc69eb08944f47ec400d24c9f73477be4d8a92c8634372aac84438a21df505000000001976a914108c80728284f554b716fd075d58223f5f8bb98888ac00000000"},{"hash":"2333316d297d08c1af1356cfbbea4a3949d60e8a51cccf6e1e1642211c8b1e7d","mtime":1538591626,"version":1,"inputs":[{"prevout":{"hash":"35126b442dd58d3f9fc1e29e53a7be08ecd5e78b72d0fc385243957eb824dcce","index":1},"script":"47304402202fea839cb81c2079856b017ee08ccf0c9b575149744c2c67e1046fcf52ac901902202d5714a33abd7f27944b4408a63a1569e5b5dbe3b0bbfdac13d9d3fc277dd725412102cd82bf771769a36f9e042b300a861ee10b8fd1e9125936dc7109b39cc4406ec6","sequence":4294967294,"address":"bchtest:qqggeqrjs2z0249hzm7swh2cygl4lzae3q840u7x2v"}],"outputs":[{"value":99949721,"script":"76a91442cc42b7dddd4c8a6006e9aebcd8f54dd368435588ac","address":"bchtest:qppvcs4hmhw5eznqqm56a0xc74xax6zr2508hxnvae"},{"value":0,"script":"6a09696e7465726c696e6b2069f8aef67f63f319e97fd050730664d889edc11d0739694f094c6ce699864c06","address":null}],"locktime":0,"hex":"0100000001cedc24b87e95435238fcd0728be7d5ec08bea7539ee2c19f3f8dd52d446b1235010000006a47304402202fea839cb81c2079856b017ee08ccf0c9b575149744c2c67e1046fcf52ac901902202d5714a33abd7f27944b4408a63a1569e5b5dbe3b0bbfdac13d9d3fc277dd725412102cd82bf771769a36f9e042b300a861ee10b8fd1e9125936dc7109b39cc4406ec6feffffff02991cf505000000001976a91442cc42b7dddd4c8a6006e9aebcd8f54dd368435588ac00000000000000002c6a09696e7465726c696e6b2069f8aef67f63f319e97fd050730664d889edc11d0739694f094c6ce699864c0600000000"},{"hash":"f7b0b6a64e633378abe19075b625ecef0d8a002d6cd2b666806a9fed51b2d7dc","mtime":1538591626,"version":1,"inputs":[{"prevout":{"hash":"2333316d297d08c1af1356cfbbea4a3949d60e8a51cccf6e1e1642211c8b1e7d","index":0},"script":"47304402202b25795ec159d57ab67503179f8e63065b0e15e9ac470e10463481efecd42380022013938fe4ec98a08dc82c62f4ac20150be34d6c4feab4043479cc81bcef6b9a544121033240715ab7816a73b784324285fcca379dda2d683edf679aea345dbc00fb1b22","sequence":4294967294,"address":"bchtest:qppvcs4hmhw5eznqqm56a0xc74xax6zr2508hxnvae"}],"outputs":[{"value":99949456,"script":"76a9148f6265989222cc13c4f7aee883e26526d33a88da88ac","address":"bchtest:qz8kyevcjg3vcy7y77hw3qlzv5ndxw5gmggfnpj430"},{"value":0,"script":"6a09696e7465726c696e6b203ab3663894d3addd1eee504dcbf532f8b880b127a6ebd5c6c0dcd626e7292285","address":null}],"locktime":0,"hex":"01000000017d1e8b1c2142161e6ecfcc518a0ed649394aeabbcf5613afc1087d296d313323000000006a47304402202b25795ec159d57ab67503179f8e63065b0e15e9ac470e10463481efecd42380022013938fe4ec98a08dc82c62f4ac20150be34d6c4feab4043479cc81bcef6b9a544121033240715ab7816a73b784324285fcca379dda2d683edf679aea345dbc00fb1b22feffffff02901bf505000000001976a9148f6265989222cc13c4f7aee883e26526d33a88da88ac00000000000000002c6a09696e7465726c696e6b203ab3663894d3addd1eee504dcbf532f8b880b127a6ebd5c6c0dcd626e729228500000000"},{"hash":"d999d6a5d91d22a6f39873ca930d01633a48adeb19a3d7058ce0125bb857b1bb","mtime":1538591626,"version":1,"inputs":[{"prevout":{"hash":"f7b0b6a64e633378abe19075b625ecef0d8a002d6cd2b666806a9fed51b2d7dc","index":0},"script":"483045022100d4920c53604afb4bf33bb9f2c4db30c1f8c468a233962ef9dbc551ad613d62ba0220525315094e2061ff4ed4a87ae6f3275bcf84eb4015a0fdd39feb29fdf62cbfc341210294e0c15d962233da659da0db5660905462b0cb441e8e14e11a64cdbdc967f54e","sequence":4294967294,"address":"bchtest:qz8kyevcjg3vcy7y77hw3qlzv5ndxw5gmggfnpj430"}],"outputs":[{"value":0,"script":"6a09696e7465726c696e6b20510531a92c3878a9756fec2f200f312e8c5ae2e4ef9fe2fc7e40e77de95d3688","address":null},{"value":99949191,"script":"76a9143a798b6a46831497d05b820317cfd93198a3d2ab88ac","address":"bchtest:qqa8nzm2g6p3f97stwpqx970myce3g7j4vd9lkgcur"}],"locktime":0,"hex":"0100000001dcd7b251ed9f6a8066b6d26c2d008a0defec25b67590e1ab7833634ea6b6b0f7000000006b483045022100d4920c53604afb4bf33bb9f2c4db30c1f8c468a233962ef9dbc551ad613d62ba0220525315094e2061ff4ed4a87ae6f3275bcf84eb4015a0fdd39feb29fdf62cbfc341210294e0c15d962233da659da0db5660905462b0cb441e8e14e11a64cdbdc967f54efeffffff0200000000000000002c6a09696e7465726c696e6b20510531a92c3878a9756fec2f200f312e8c5ae2e4ef9fe2fc7e40e77de95d3688871af505000000001976a9143a798b6a46831497d05b820317cfd93198a3d2ab88ac00000000"},{"hash":"b988f86bc4f9ffec2977d764e4a03317b8f4035573abb82488a0443a2c95c2b5","mtime":1538591626,"version":1,"inputs":[{"prevout":{"hash":"d999d6a5d91d22a6f39873ca930d01633a48adeb19a3d7058ce0125bb857b1bb","index":1},"script":"483045022100ecae9316e2eba938e1019f9ebd7829e970ec426de6607f17a6f475d5acca13de02205e4d5e7cd6932027a0909509229c2269f4d9d628bb2314b606c859d40246e6b64121026beb19a4926396032b37dfd40b8a0a18306c6eaaf190e3f6e005af95b5a992ed","sequence":4294967294,"address":"bchtest:qqa8nzm2g6p3f97stwpqx970myce3g7j4vd9lkgcur"}],"outputs":[{"value":99948926,"script":"76a9146e0d574f84d7dd3167142a2df91f966fed0ce9cf88ac","address":"bchtest:qphq6460snta6vt8zs4zm7gljeh76r8feugczde4u5"},{"value":0,"script":"6a09696e7465726c696e6b20b5a1ac1915ff3cc8fcf9c91251d7c84e566a739cf79345512e2390ba9482b061","address":null}],"locktime":0,"hex":"0100000001bbb157b85b12e08c05d7a319ebad483a63010d93ca7398f3a6221dd9a5d699d9010000006b483045022100ecae9316e2eba938e1019f9ebd7829e970ec426de6607f17a6f475d5acca13de02205e4d5e7cd6932027a0909509229c2269f4d9d628bb2314b606c859d40246e6b64121026beb19a4926396032b37dfd40b8a0a18306c6eaaf190e3f6e005af95b5a992edfeffffff027e19f505000000001976a9146e0d574f84d7dd3167142a2df91f966fed0ce9cf88ac00000000000000002c6a09696e7465726c696e6b20b5a1ac1915ff3cc8fcf9c91251d7c84e566a739cf79345512e2390ba9482b06100000000"},{"hash":"81df0daca84d7bdbe7b103b4ee68df9498ed44c8e3381bdf055233ab54b33c48","mtime":1538591626,"version":1,"inputs":[{"prevout":{"hash":"b988f86bc4f9ffec2977d764e4a03317b8f4035573abb82488a0443a2c95c2b5","index":0},"script":"47304402200c9b2038c7a3f981e4dbccc8337849bc0002e4f2147f069be7f8f67198156f60022053d5458a8cdd958fb1152ce16efcf0e3e2f99b047f10acaecd2db1966cecbc30412102b392e720c0fe7c70a0b0986e7d4c1e3d30f41076772c0b981a326c032f37b467","sequence":4294967294,"address":"bchtest:qphq6460snta6vt8zs4zm7gljeh76r8feugczde4u5"}],"outputs":[{"value":0,"script":"6a09696e7465726c696e6b2007573442dc68f1b16c1e43ffe69d061f005dcc262a78988e689269daef3e3be1","address":null},{"value":99948661,"script":"76a91483390a169136bf7abefd8f83b72a8dd9b91d7f1488ac","address":"bchtest:qzpnjzskjymt7747lk8c8de23hvmj8tlzs3g4nwmhh"}],"locktime":0,"hex":"0100000001b5c2952c3a44a08824b8ab735503f4b81733a0e464d77729ecfff9c46bf888b9000000006a47304402200c9b2038c7a3f981e4dbccc8337849bc0002e4f2147f069be7f8f67198156f60022053d5458a8cdd958fb1152ce16efcf0e3e2f99b047f10acaecd2db1966cecbc30412102b392e720c0fe7c70a0b0986e7d4c1e3d30f41076772c0b981a326c032f37b467feffffff0200000000000000002c6a09696e7465726c696e6b2007573442dc68f1b16c1e43ffe69d061f005dcc262a78988e689269daef3e3be17518f505000000001976a91483390a169136bf7abefd8f83b72a8dd9b91d7f1488ac00000000"},{"hash":"bdd85373fb6bea5c99466b89e979725c59e04a195439736eb054d4cbcb9a2e1d","mtime":1538591626,"version":1,"inputs":[{"prevout":{"hash":"81df0daca84d7bdbe7b103b4ee68df9498ed44c8e3381bdf055233ab54b33c48","index":1},"script":"483045022100e466dcdcef34cf053d272c5fc6db8999e77047cb28f99a109e698c2d95d5d5c40220169f57b3bc046d48c611375f1602ee2e04708c074ca08db1396211bc2670e683412102becd693c2730dcdba3308803d03310b32988e8c9dcbb0c1b61a8eeed36a123e3","sequence":4294967294,"address":"bchtest:qzpnjzskjymt7747lk8c8de23hvmj8tlzs3g4nwmhh"}],"outputs":[{"value":99948396,"script":"76a91476b752434c0af962959805c5ca183eb85ffe198888ac","address":"bchtest:qpmtw5jrfs90jc54nqzutjsc86u9llse3qeam80zdp"},{"value":0,"script":"6a09696e7465726c696e6b206c179bb2ab1cbf77713e8acbf20a8ca1f12b430da630163e466d7c99fefe3645","address":null}],"locktime":0,"hex":"0100000001483cb354ab335205df1b38e3c844ed9894df68eeb403b1e7db7b4da8ac0ddf81010000006b483045022100e466dcdcef34cf053d272c5fc6db8999e77047cb28f99a109e698c2d95d5d5c40220169f57b3bc046d48c611375f1602ee2e04708c074ca08db1396211bc2670e683412102becd693c2730dcdba3308803d03310b32988e8c9dcbb0c1b61a8eeed36a123e3feffffff026c17f505000000001976a91476b752434c0af962959805c5ca183eb85ffe198888ac00000000000000002c6a09696e7465726c696e6b206c179bb2ab1cbf77713e8acbf20a8ca1f12b430da630163e466d7c99fefe364500000000"},{"hash":"346c3ef0305f8eccb9b7599a51a2d94d9052ffc76a5b954890ace6f030afbe81","mtime":1538591626,"version":1,"inputs":[{"prevout":{"hash":"bdd85373fb6bea5c99466b89e979725c59e04a195439736eb054d4cbcb9a2e1d","index":0},"script":"483045022100d4ffc3be95d1058e2ba8224771cbad7302e00da3f454a5188fc77180b8b762590220427ff0671334e4a5b47cff25c94218a343e27f32b9a68b7c80f827b69301dc2f4121038cd1e9d0e58c89e3f91b5be156841f32f20e52bdb377facb2e9e48a831d40683","sequence":4294967294,"address":"bchtest:qpmtw5jrfs90jc54nqzutjsc86u9llse3qeam80zdp"}],"outputs":[{"value":99948131,"script":"76a914df5f969672d1e9d3c9aee0488d59ca1b0ee8551e88ac","address":"bchtest:qr04l95kwtg7n57f4msy3r2eegdsa6z4rc3j9ycc2n"},{"value":0,"script":"6a09696e7465726c696e6b20e555d711b18d52dbc87b8fbbbb5d1637a915173b3ffffb96c38abb0cc8bc6801","address":null}],"locktime":0,"hex":"01000000011d2e9acbcbd454b06e733954194ae0595c7279e9896b46995cea6bfb7353d8bd000000006b483045022100d4ffc3be95d1058e2ba8224771cbad7302e00da3f454a5188fc77180b8b762590220427ff0671334e4a5b47cff25c94218a343e27f32b9a68b7c80f827b69301dc2f4121038cd1e9d0e58c89e3f91b5be156841f32f20e52bdb377facb2e9e48a831d40683feffffff026316f505000000001976a914df5f969672d1e9d3c9aee0488d59ca1b0ee8551e88ac00000000000000002c6a09696e7465726c696e6b20e555d711b18d52dbc87b8fbbbb5d1637a915173b3ffffb96c38abb0cc8bc680100000000"},{"hash":"2d02140d06fe58eb8428ada6a9a0288424595bcb364e71a4edd3cd26512f6437","mtime":1538591626,"version":1,"inputs":[{"prevout":{"hash":"346c3ef0305f8eccb9b7599a51a2d94d9052ffc76a5b954890ace6f030afbe81","index":0},"script":"4730440220793c1e39e87dde6d2de4a73e1efd26aa48e97975fb37082e5a1cd03e11435cc6022072d6a063661689b5f2b178340f735c2763118224e8d5bf98d531c030964534a4412102f678918aba7955b3c6654d07022566ad2911269ba18b4c93ed6a9988afa009f9","sequence":4294967294,"address":"bchtest:qr04l95kwtg7n57f4msy3r2eegdsa6z4rc3j9ycc2n"}],"outputs":[{"value":0,"script":"6a09696e7465726c696e6b200052aa05b2be7fdc0fa6839affcf18b53b8936bd28c23d018c00e0877e491711","address":null},{"value":99947866,"script":"76a914097aba1c2d26b19d6780e171a97ca225ebfe8de088ac","address":"bchtest:qqyh4wsu95ntr8t8srshr2tu5gj7hl5duqufzg5zxn"}],"locktime":0,"hex":"010000000181beaf30f0e6ac9048955b6ac7ff52904dd9a2519a59b7b9cc8e5f30f03e6c34000000006a4730440220793c1e39e87dde6d2de4a73e1efd26aa48e97975fb37082e5a1cd03e11435cc6022072d6a063661689b5f2b178340f735c2763118224e8d5bf98d531c030964534a4412102f678918aba7955b3c6654d07022566ad2911269ba18b4c93ed6a9988afa009f9feffffff0200000000000000002c6a09696e7465726c696e6b200052aa05b2be7fdc0fa6839affcf18b53b8936bd28c23d018c00e0877e4917115a15f505000000001976a914097aba1c2d26b19d6780e171a97ca225ebfe8de088ac00000000"},{"hash":"c7c8a8181554b8632cc6550bae243352c7eafe34e500abae49a1b7159d2e478d","mtime":1538591626,"version":1,"inputs":[{"prevout":{"hash":"2d02140d06fe58eb8428ada6a9a0288424595bcb364e71a4edd3cd26512f6437","index":1},"script":"47304402204febc00547c08961a4b97c6ca193a8fef81f118bbe4ad0b1a50762d0a26babb90220279aba7f3872ff5c1d480a07099697b2f04393565c2aca3c0d98b76be4ec5cf1412102abe03bad69f0611f8032b482a4333af435bae0169b7bf3177d644c94a8461c1d","sequence":4294967294,"address":"bchtest:qqyh4wsu95ntr8t8srshr2tu5gj7hl5duqufzg5zxn"}],"outputs":[{"value":0,"script":"6a09696e7465726c696e6b20f205be41a756efd72eb6d0faa2247296be8373b6606e2e6e806a108aaa323bf1","address":null},{"value":99947601,"script":"76a9142e2e95b4cc74b6190deb1c0b8a661d31d636e2e488ac","address":"bchtest:qqhza9d5e36tvxgdavwqhznxr5cavdhzusj8t287ct"}],"locktime":0,"hex":"010000000137642f5126cdd3eda4714e36cb5b59248428a0a9a6ad2884eb58fe060d14022d010000006a47304402204febc00547c08961a4b97c6ca193a8fef81f118bbe4ad0b1a50762d0a26babb90220279aba7f3872ff5c1d480a07099697b2f04393565c2aca3c0d98b76be4ec5cf1412102abe03bad69f0611f8032b482a4333af435bae0169b7bf3177d644c94a8461c1dfeffffff0200000000000000002c6a09696e7465726c696e6b20f205be41a756efd72eb6d0faa2247296be8373b6606e2e6e806a108aaa323bf15114f505000000001976a9142e2e95b4cc74b6190deb1c0b8a661d31d636e2e488ac00000000"},{"hash":"6621864f77a9c17b229e55a27ca8a58d09fa118cd2c51605281012f49b5eb737","mtime":1538591626,"version":1,"inputs":[{"prevout":{"hash":"c7c8a8181554b8632cc6550bae243352c7eafe34e500abae49a1b7159d2e478d","index":1},"script":"483045022100aad58d2290c3356a0682f016e499eba8a3bf9a488cf993ff6f1e148f2c5a14dc022068cc75756a9d5d5d28f4ef8e17f51fda19fb6b0c68f81f2877328a64b0e2fe774121022ba18b0b1be9425ecc082ce61aa97379b49810060c12a6ebe08c3778c35424e4","sequence":4294967294,"address":"bchtest:qqhza9d5e36tvxgdavwqhznxr5cavdhzusj8t287ct"}],"outputs":[{"value":0,"script":"6a09696e7465726c696e6b20c2468685c4fc3789f3b1c68f726e6af0c0df8d6f9d1fc460cf7227a0a0cb590b","address":null},{"value":99947336,"script":"76a914418f48b2941aeb690b0dceb0f7add2ebf415bae288ac","address":"bchtest:qpqc7j9jjsdwk6gtph8tpaad6t4lg9d6ugx6s5026g"}],"locktime":0,"hex":"01000000018d472e9d15b7a149aeab00e534feeac7523324ae0b55c62c63b8541518a8c8c7010000006b483045022100aad58d2290c3356a0682f016e499eba8a3bf9a488cf993ff6f1e148f2c5a14dc022068cc75756a9d5d5d28f4ef8e17f51fda19fb6b0c68f81f2877328a64b0e2fe774121022ba18b0b1be9425ecc082ce61aa97379b49810060c12a6ebe08c3778c35424e4feffffff0200000000000000002c6a09696e7465726c696e6b20c2468685c4fc3789f3b1c68f726e6af0c0df8d6f9d1fc460cf7227a0a0cb590b4813f505000000001976a914418f48b2941aeb690b0dceb0f7add2ebf415bae288ac00000000"},{"hash":"e62c11c23c941940e7ebae633bd4145b5452bd5b6fab0643546b51486c241c90","mtime":1538591626,"version":1,"inputs":[{"prevout":{"hash":"6621864f77a9c17b229e55a27ca8a58d09fa118cd2c51605281012f49b5eb737","index":1},"script":"483045022100b887e80ef4b34b19bd42c798a28252eba3c0d860695fababebd8a4a57f45c40302205114e1c024482e4cd94f41c66e953f8b5e70a54213e3a6f7d71b7514ac5db91241210264cb673d86fd4b11ba98cd244304d76fde1f445fb24313febffd3ffdbc3e28ab","sequence":4294967294,"address":"bchtest:qpqc7j9jjsdwk6gtph8tpaad6t4lg9d6ugx6s5026g"}],"outputs":[{"value":0,"script":"6a09696e7465726c696e6b20b189d2b8a221ce6d236f8c63cbaf8ec9e36650ab12ad5f8e1f614bcb081de8dd","address":null},{"value":99947071,"script":"76a91458df11016d630117933e1fe7216e56b887b66fcc88ac","address":"bchtest:qpvd7ygpd43sz9un8c07wgtw26ug0dn0esugv55cyc"}],"locktime":0,"hex":"010000000137b75e9bf41210280516c5d28c11fa098da5a87ca2559e227bc1a9774f862166010000006b483045022100b887e80ef4b34b19bd42c798a28252eba3c0d860695fababebd8a4a57f45c40302205114e1c024482e4cd94f41c66e953f8b5e70a54213e3a6f7d71b7514ac5db91241210264cb673d86fd4b11ba98cd244304d76fde1f445fb24313febffd3ffdbc3e28abfeffffff0200000000000000002c6a09696e7465726c696e6b20b189d2b8a221ce6d236f8c63cbaf8ec9e36650ab12ad5f8e1f614bcb081de8dd3f12f505000000001976a91458df11016d630117933e1fe7216e56b887b66fcc88ac00000000"}]