[{"hash":"9d18554e296614fb433474746192e653aae2c77d76eab326f10ec491efa63e43","mtime":1538591626,"version":1,"inputs":[{"prevout":{"hash":"d4c9079fff7c2d4399a26e5a9bf288a9feb1f5eedc7950578b392ce336c29da6","index":1},"script":"473044022019895da7224f61925d4d53af79acec5da382323900dbe99321bf25837a31350202206af428aee69b8493e143e5482556e2cf977d1e9b31830e4883ee89e50a330cc74121035aee93d4771885e8f050c697d6989077760197aa7cf2a8a9d8311faa0e50ddb2","sequence":4294967295,"address":"bchtest:qrum00hmnx0mkvm54atdc4zmamrgrvvlaqqpv5xfeq"}],"outputs":[{"value":0,"script":"6a09696e7465726c696e6b209b6f0b7332c0c4734d8768394faa1c3e03597930ec049d0984586fbb19e3dfea","address":null},{"value":108268160,"script":"76a9149a0423d2dab5218249838443af8a9e785aa4018388ac","address":"bchtest:qzdqgg7jm26jrqjfswzy8tu2neu94fqpsvkk5kthvu"}],"locktime":0,"hex":"0100000001a69dc236e32c398b575079dceef5b1fea988f29b5a6ea299432d7cff9f07c9d4010000006a473044022019895da7224f61925d4d53af79acec5da382323900dbe99321bf25837a31350202206af428aee69b8493e143e5482556e2cf977d1e9b31830e4883ee89e50a330cc74121035aee93d4771885e8f050c697d6989077760197aa7cf2a8a9d8311faa0e50ddb2ffffffff0200000000000000002c6a09696e7465726c696e6b209b6f0b7332c0c4734d8768394faa1c3e03597930ec049d0984586fbb19e3dfea800a7406000000001976a9149a0423d2dab5218249838443af8a9e785aa4018388ac00000000"}]