[{"hash":"5eeb068f6c8fdcfaebc93f5ff3ebfc6b473320038b5d7e2d69a3b1f85a27dcd4","mtime":1538591626,"version":1,"inputs":[{"prevout":{"hash":"0d8868404eb1d5b27ca27f81df6f93f00720e5e31a32a5651444375004861f48","index":0},"script":"47304402206501bc2cbb8ec32abd56a4012b58f9757428d0c96c228a516709fd75167f0fb3022033ae02b5408b35527354f9727409715b4904bec17e9923b266ff4292eab39be44121021e03ed503fa6d49465d6cc9a2991c39a9665f2d71816be6fffa56ae446c951b0","sequence":4294967294,"address":"bchtest:qzhun9k6uyu3tvswp7rf3f3dxa47qj7llurgftkazy"}],"outputs":[{"value":99946007,"script":"76a9147be2bbe92d24d2c7c16837766b6715063712f5bc88ac","address":"bchtest:qpa79wlf95jd937pdqmhv6m8z5rrwyh4hswz0dl454"},{"value":0,"script":"6a09696e7465726c696e6b20cc96ff56d2ced718c5fb80417ebf727988ccf34ce0b02a5c83a44b3f98f9a6a2","address":null}],"locktime":0,"hex":"0100000001481f86045037441465a5321ae3e52007f0936fdf817fa27cb2d5b14e4068880d000000006a47304402206501bc2cbb8ec32abd56a4012b58f9757428d0c96c228a516709fd75167f0fb3022033ae02b5408b35527354f9727409715b4904bec17e9923b266ff4292eab39be44121021e03ed503fa6d49465d6cc9a2991c39a9665f2d71816be6fffa56ae446c951b0feffffff02170ef505000000001976a9147be2bbe92d24d2c7c16837766b6715063712f5bc88ac00000000000000002c6a09696e7465726c696e6b20cc96ff56d2ced718c5fb80417ebf727988ccf34ce0b02a5c83a44b3f98f9a6a200000000"}]