[{"hash":"5fdd09ab7e54c1473282e156cc3d6dc227e2adc72a2bc3eb95e2ae25b4ac439e","mtime":1538591626,"version":1,"inputs":[{"prevout":{"hash":"59073264ec5bf0ec66dbb1104772ab5ddcbd0d7c05770ce805ce10488378c359","index":1},"script":"47304402201f1973b89fc9152c2d8fdd74116146ef66a74c5061f63cea09b14179ed7b831802203751492f5aa20ed635ce38537788375bede250c1a63255918a02f2c6ba6992b841210269b1991891a5e5f9c49a96234b082901cc397ed26653c57b360b92c9efc5f75e","sequence":4294967295,"address":"bchtest:qp8jldh0l57a9jl0qq89vfj25r786u8fcs0sh2d554"}],"outputs":[{"value":0,"script":"6a09696e7465726c696e6b20cf815a8361abb25d6794211b49738501234e008c1a773ef29f78f21c87ebcc80","address":null},{"value":108258320,"script":"76a914e8cf7b8afdb5db8b8fbe73f27f22a0c0f07b138988ac","address":"bchtest:qr5v77u2lk6ahzu0heelylez5rq0q7cn3yjhglv7qd"}],"locktime":0,"hex":"010000000159c378834810ce05e80c77057c0dbddc5dab724710b1db66ecf05bec64320759010000006a47304402201f1973b89fc9152c2d8fdd74116146ef66a74c5061f63cea09b14179ed7b831802203751492f5aa20ed635ce38537788375bede250c1a63255918a02f2c6ba6992b841210269b1991891a5e5f9c49a96234b082901cc397ed26653c57b360b92c9efc5f75effffffff0200000000000000002c6a09696e7465726c696e6b20cf815a8361abb25d6794211b49738501234e008c1a773ef29f78f21c87ebcc8010e47306000000001976a914e8cf7b8afdb5db8b8fbe73f27f22a0c0f07b138988ac00000000"},{"hash":"0d8868404eb1d5b27ca27f81df6f93f00720e5e31a32a5651444375004861f48","mtime":1538591626,"version":1,"inputs":[{"prevout":{"hash":"cd8d86502be2b8b46816054d9ae95ff749c3498c4844732b7a044bc0f6ae3880","index":0},"script":"47304402206694cfb4a7bf613627832b811b19a1b1848818c30e2d7415a3bbc8bd928c989d022036c61388fe27778c39193d1c7f03d0c466fb9a50721be997950aad36f958954d4121022bb23a4120b9ce00097a89276c7e9b06a9f3f444c725951230d58608c782610e","sequence":4294967294,"address":"bchtest:qqgup2z4gj8rge7dvej4w5nmssxm86ehkvj8wlggx2"}],"outputs":[{"value":99946273,"script":"76a914afc996dae13915b20e0f8698a62d376be04bdfff88ac","address":"bchtest:qzhun9k6uyu3tvswp7rf3f3dxa47qj7llurgftkazy"},{"value":0,"script":"6a09696e7465726c696e6b20cf815a8361abb25d6794211b49738501234e008c1a773ef29f78f21c87ebcc80","address":null}],"locktime":0,"hex":"01000000018038aef6c04b047a2b7344488c49c349f75fe99a4d051668b4b8e22b50868dcd000000006a47304402206694cfb4a7bf613627832b811b19a1b1848818c30e2d7415a3bbc8bd928c989d022036c61388fe27778c39193d1c7f03d0c466fb9a50721be997950aad36f958954d4121022bb23a4120b9ce00097a89276c7e9b06a9f3f444c725951230d58608c782610efeffffff02210ff505000000001976a914afc996dae13915b20e0f8698a62d376be04bdfff88ac00000000000000002c6a09696e7465726c696e6b20cf815a8361abb25d6794211b49738501234e008c1a773ef29f78f21c87ebcc8000000000"}]