[{"hash":"e9679caeec291b298b3b99bc4d257c3966cbd1cf8620066f660cb4ce89346cea","mtime":1538591626,"version":1,"inputs":[{"prevout":{"hash":"3184b2db22c422fc67bdf52e8897835f4540693ef199a193a5f80ee31138989f","index":1},"script":"473044022034085402d5512dcf65a5acf81294965c65f02c65b0ce2fa2fbebc1017f486a030220273e715602bfcaeb67303caf0c3c3d5b0822b3c9922c55b55870e2293244f5d2412102567604aa3b096e578d7cd47635aad2d11630e446abeccac6b52762c563fa81fe","sequence":4294967295,"address":"bchtest:qpc7ppp8xtgp5t3tve34304d283vkhw0jynz6l0v9z"}],"outputs":[{"value":0,"script":"6a09696e7465726c696e6b20aeed62c94315f1e45d4fa9027c9c973d1148f9c0a3dc749c70aa0db0e92cc894","address":null},{"value":108292760,"script":"76a91434d0f7af43fa98a9ebffc56335fa51aff00a2d5a88ac","address":"bchtest:qq6dpaa0g0af320tllzkxd062xhlqz3dtgmnzqdzp9"}],"locktime":0,"hex":"01000000019f983811e30ef8a593a199f13e6940455f8397882ef5bd67fc22c422dbb28431010000006a473044022034085402d5512dcf65a5acf81294965c65f02c65b0ce2fa2fbebc1017f486a030220273e715602bfcaeb67303caf0c3c3d5b0822b3c9922c55b55870e2293244f5d2412102567604aa3b096e578d7cd47635aad2d11630e446abeccac6b52762c563fa81feffffffff0200000000000000002c6a09696e7465726c696e6b20aeed62c94315f1e45d4fa9027c9c973d1148f9c0a3dc749c70aa0db0e92cc894986a7406000000001976a91434d0f7af43fa98a9ebffc56335fa51aff00a2d5a88ac00000000"}]