{"hash":"000000000156058b2dd7ddf8382a00c0cab1099beac43d3b7ba8834cf3d483a1","version":536870912,"prevBlock":"0000000000c404a3553fd0290ec40021e99bf078bd06726a8caa6c023e7eb889","merkleRoot":"70a1ca8df62b50aa3a25df13bef748970541148079f351c884732c82265c9b02","time":1538663581,"bits":486604799,"nonce":3564788777,"totalTX":68,"hashes":["d7f988fadb6b393350831a547b7651e2cdfd1b0eabbc365d9bbb6e6db160fac6","508511ef6a47fa74ccda2bf8403627be8c35f7d299f7bfa1c01e6b988e13449f","4352b39ce5893554223cbb95cfb2ec61b26fabaa26d05e82ab3cfd3416ddc437","0adebafba320019155deb52683dcfd5a445051f1c3f193eaf269ae6119168caa","f3db3507dda0be38919cc3ad2cde1f75ce31ad17cb0aa87c9b0791ff257c6296","51360238410ca65e1731552e4fdcf62615d98f00700316c2ac430f50b6298d70","b47f10aac09c2bcc0a2cad82962590b9da552e5d626fd71cd618c26b920bb01a","0ee0e8945d65d6479d0e6bd5fdb475582d18d7085d8d7dd8b83ab05ac4e85be5","461c543a5419d0794ea42f9699ddccbdca7b29e5b1cc2a0c5b54745bd3b761ca","88e517951cfb7eef56a7ab19a17e57724b825384dbd9f057115bea13bf948bc4"],"flags":"bfc237","txs":[{"hash":"4352b39ce5893554223cbb95cfb2ec61b26fabaa26d05e82ab3cfd3416ddc437","mtime":1538664636,"version":1,"inputs":[{"prevout":{"hash":"d5ce0d7ff70be33e32dfe445a75a95262fdcd3246895f4793c717e4591e06f11","index":1},"script":"483045022100e361a80d57a34380e221e4c7d0260e3b3bb8f4a92f7e3fb706e8c9450b6f039002203f39c94197edb0805931660fb0db61197feaf0fe4af416d12563cb671119eaec41210375d0c8bdd3aebe8be746ce644928054e0346542285281a716248ed196db415d8","sequence":4294967295,"address":"bchtest:qzcdqtp5m2vu5384yw77xzq44fnglwsu6qs4tchw76"}],"outputs":[{"value":0,"script":"6a09696e7465726c696e6b203ed9f218fcd415e036ccd4b485f252f1dc30db43320d51721b17462a0485a25a","address":null},{"value":107982800,"script":"76a914c30d5a05e60ebe4b439498be821a58c2f253ed4788ac","address":"bchtest:qrps6ks9uc8tuj6rjjvtaqs6trp0y5ldguks8mqtk3"}],"locktime":0,"hex":"0100000001116fe091457e713c79f4956824d3dc2f26955aa745e4df323ee30bf77f0dced5010000006b483045022100e361a80d57a34380e221e4c7d0260e3b3bb8f4a92f7e3fb706e8c9450b6f039002203f39c94197edb0805931660fb0db61197feaf0fe4af416d12563cb671119eaec41210375d0c8bdd3aebe8be746ce644928054e0346542285281a716248ed196db415d8ffffffff0200000000000000002c6a09696e7465726c696e6b203ed9f218fcd415e036ccd4b485f252f1dc30db43320d51721b17462a0485a25ad0af6f06000000001976a914c30d5a05e60ebe4b439498be821a58c2f253ed4788ac00000000"},{"hash":"461c543a5419d0794ea42f9699ddccbdca7b29e5b1cc2a0c5b54745bd3b761ca","mtime":1538664636,"version":1,"inputs":[{"prevout":{"hash":"0fd3692db15bda6fac4f1a7d653d9b9f9df9c60093a99932e552acdbc6860316","index":1},"script":"483045022100c9dd2ba193697c6be880b021c7c13e8d475b1af6b379317bef8f1ea52e7038fd02200d43f781179c7803aa22350f070069493940765fa5f05c852841c43fd2507343412103dd2487676aab961b7c145ea23ce86804aaa3b2fd0b532b5dce6bb8da9b8369ea","sequence":4294967294,"address":"bchtest:qrxvv9gwu35t6pwqlhh7p56zgcayn5awms6qd85y74"}],"outputs":[{"value":0,"script":"6a09696e7465726c696e6b203ed9f218fcd415e036ccd4b485f252f1dc30db43320d51721b17462a0485a25a","address":null},{"value":99917279,"script":"76a914b45680103e2cfc7275fe3a22236e777ab133d74988ac","address":"bchtest:qz69dqqs8ck0cun4lcazygmwwaatzv7hfy4jj4xylw"}],"locktime":0,"hex":"0100000001160386c6dbac52e53299a99300c6f99d9f9b3d657d1a4fac6fda5bb12d69d30f010000006b483045022100c9dd2ba193697c6be880b021c7c13e8d475b1af6b379317bef8f1ea52e7038fd02200d43f781179c7803aa22350f070069493940765fa5f05c852841c43fd2507343412103dd2487676aab961b7c145ea23ce86804aaa3b2fd0b532b5dce6bb8da9b8369eafeffffff0200000000000000002c6a09696e7465726c696e6b203ed9f218fcd415e036ccd4b485f252f1dc30db43320d51721b17462a0485a25adf9df405000000001976a914b45680103e2cfc7275fe3a22236e777ab133d74988ac00000000"}]}