[{"hash":"59073264ec5bf0ec66dbb1104772ab5ddcbd0d7c05770ce805ce10488378c359","mtime":1538591626,"version":1,"inputs":[{"prevout":{"hash":"9d18554e296614fb433474746192e653aae2c77d76eab326f10ec491efa63e43","index":1},"script":"483045022100bbcd3d2b092dea1947070694ad20f183e09e92825080d2d9dd3531b8af895ee102202bb245994a5a05b7910cfd630ff8040aeef284a27f4d21e31ca95077df404ec5412103bf7f3a787907ebc2020f04479f378a650f7fbe438df23a7f930c4464a87a3b8d","sequence":4294967295,"address":"bchtest:qzdqgg7jm26jrqjfswzy8tu2neu94fqpsvkk5kthvu"}],"outputs":[{"value":0,"script":"6a09696e7465726c696e6b20a11378dbf3bf3bb248ce3e9a6e4fd68d01f628d994192b3668424afeb0392795","address":null},{"value":108263240,"script":"76a9144f2fb6effd3dd2cbef000e56264aa0fc7d70e9c488ac","address":"bchtest:qp8jldh0l57a9jl0qq89vfj25r786u8fcs0sh2d554"}],"locktime":0,"hex":"0100000001433ea6ef91c40ef126b3ea767dc7e2aa53e6926174743443fb1466294e55189d010000006b483045022100bbcd3d2b092dea1947070694ad20f183e09e92825080d2d9dd3531b8af895ee102202bb245994a5a05b7910cfd630ff8040aeef284a27f4d21e31ca95077df404ec5412103bf7f3a787907ebc2020f04479f378a650f7fbe438df23a7f930c4464a87a3b8dffffffff0200000000000000002c6a09696e7465726c696e6b20a11378dbf3bf3bb248ce3e9a6e4fd68d01f628d994192b3668424afeb039279548f77306000000001976a9144f2fb6effd3dd2cbef000e56264aa0fc7d70e9c488ac00000000"},{"hash":"c9c9d04edd4495104847a27a671b2d8416de8cd7d760a637cee46f2eccb8bbf6","mtime":1538591626,"version":1,"inputs":[{"prevout":{"hash":"e62c11c23c941940e7ebae633bd4145b5452bd5b6fab0643546b51486c241c90","index":1},"script":"47304402201e551a71c4a7e745b2350c563943b971bcea13980e064f45b897413f7a269bd302204cffede9bb3c21df5cfc12847c286e9234a5af9d5e85a1c620d923a1cda97374412102202de40f5001bdcbe4a9452d98a4f8f7680e91db4f8573e20fe2f05a0bf91622","sequence":4294967294,"address":"bchtest:qpvd7ygpd43sz9un8c07wgtw26ug0dn0esugv55cyc"}],"outputs":[{"value":0,"script":"6a09696e7465726c696e6b20a11378dbf3bf3bb248ce3e9a6e4fd68d01f628d994192b3668424afeb0392795","address":null},{"value":99946805,"script":"76a9144e38d7af37ce9dca71f48dfe0885e2424f28c03f88ac","address":"bchtest:qp8r34a0xl8fmjn37jxluzy9ufpy72xq8uq5hvr53q"}],"locktime":0,"hex":"0100000001901c246c48516b544306ab6f5bbd52545b14d43b63aeebe74019943cc2112ce6010000006a47304402201e551a71c4a7e745b2350c563943b971bcea13980e064f45b897413f7a269bd302204cffede9bb3c21df5cfc12847c286e9234a5af9d5e85a1c620d923a1cda97374412102202de40f5001bdcbe4a9452d98a4f8f7680e91db4f8573e20fe2f05a0bf91622feffffff0200000000000000002c6a09696e7465726c696e6b20a11378dbf3bf3bb248ce3e9a6e4fd68d01f628d994192b3668424afeb03927953511f505000000001976a9144e38d7af37ce9dca71f48dfe0885e2424f28c03f88ac00000000"}]