[{"hash":"1dc535f2cf3e550773497485adba01ef93630bcdb6a7af8b5ea0122b6553b181","mtime":1538591626,"version":1,"inputs":[{"prevout":{"hash":"e9679caeec291b298b3b99bc4d257c3966cbd1cf8620066f660cb4ce89346cea","index":1},"script":"48304502210091a1640e7c82ad13afc1a11e2c82bc5450fd4f177aa16aac74fc916a1e263c6202203dd72d16b8a8c46ab898f815b8628e7b69345b1e6883854ae39bb4bf7e56f8bb412103fff1d39943b73b2a41740d37c3c1e989ed1509e10cf19caf5376a60b3a074195","sequence":4294967295,"address":"bchtest:qq6dpaa0g0af320tllzkxd062xhlqz3dtgmnzqdzp9"}],"outputs":[{"value":0,"script":"6a09696e7465726c696e6b209f17b76b7af188360aaff1f8f304526e69c8218ac2a2f99795c1c5d6be6bf0cf","address":null},{"value":108287840,"script":"76a914643a7efb816d4a00706fb8d85aaf0cdf332c082e88ac","address":"bchtest:qpjr5lhms9k55qrsd7udsk40pn0nxtqg9c05m7vypl"}],"locktime":0,"hex":"0100000001ea6c3489ceb40c666f062086cfd1cb66397c254dbc993b8b291b29ecae9c67e9010000006b48304502210091a1640e7c82ad13afc1a11e2c82bc5450fd4f177aa16aac74fc916a1e263c6202203dd72d16b8a8c46ab898f815b8628e7b69345b1e6883854ae39bb4bf7e56f8bb412103fff1d39943b73b2a41740d37c3c1e989ed1509e10cf19caf5376a60b3a074195ffffffff0200000000000000002c6a09696e7465726c696e6b209f17b76b7af188360aaff1f8f304526e69c8218ac2a2f99795c1c5d6be6bf0cf60577406000000001976a914643a7efb816d4a00706fb8d85aaf0cdf332c082e88ac00000000"}]