[{"hash":"a217a2561be9c57ca4d5e5ec26efc762fc471cb5c968a87b0929eb0699557f1b","mtime":1538591626,"version":1,"inputs":[{"prevout":{"hash":"9923310ef891b0f92b00b07a82bda50490126ab2bfbb96432cf10689cb171953","index":1},"script":"47304402207e1f35b55c5fb94e0f1b82b238f394425264161ea63d6e65d4d9a9185f1403f202203b44411a39c4a7491fa54c64202e0f240f55e433f4be69d1bd181319cb1f5d02412102f19a53e3402188ea67a8a6f6dd871ad3ac2dcfb7b1ab14ad8b66d7620b2fa1f1","sequence":4294967295,"address":"bchtest:qqhjkfwdk0nq7rcfax5ka88dej2vqmensuhvqje38c"}],"outputs":[{"value":0,"script":"6a09696e7465726c696e6b208b26fcfb0fb90183db227df3795f3d3612ddd104ade15c7bec1dafcd3306facb","address":null},{"value":108248480,"script":"76a914512eecd1e121a2cec1292f834c69eff41f71168e88ac","address":"bchtest:qpgjamx3uys69nkp9yhcxnrfal6p7ugk3ca0u3e0rk"}],"locktime":0,"hex":"0100000001531917cb8906f12c4396bbbfb26a129004a5bd827ab0002bf9b091f80e312399010000006a47304402207e1f35b55c5fb94e0f1b82b238f394425264161ea63d6e65d4d9a9185f1403f202203b44411a39c4a7491fa54c64202e0f240f55e433f4be69d1bd181319cb1f5d02412102f19a53e3402188ea67a8a6f6dd871ad3ac2dcfb7b1ab14ad8b66d7620b2fa1f1ffffffff0200000000000000002c6a09696e7465726c696e6b208b26fcfb0fb90183db227df3795f3d3612ddd104ade15c7bec1dafcd3306facba0bd7306000000001976a914512eecd1e121a2cec1292f834c69eff41f71168e88ac00000000"},{"hash":"d54bed589d6f6e3f71f5eb66e09c7c526ea92aa631a80efb9e683f863ed75474","mtime":1538591626,"version":1,"inputs":[{"prevout":{"hash":"61fb12bcc92f6192a554b4f767546dbd951b056b6eb99d8206fea09fd3f9c120","index":1},"script":"47304402200c085a22dda302fb08cfcd5447ec02ba9a568d6773062991207cfe6856700df102201267f26dc4160a541412881d66ec11c7dd7f944ceafde4c3017eab15ec2b4bf1412102726e7623f116368ab5c52ecbb402e8755a9ca3ad6eba90c579fb29243a2dd1a6","sequence":4294967294,"address":"bchtest:qrnn9q9gsglpt5k6v833uhtg4ngsrsaxavxf9a5usy"}],"outputs":[{"value":0,"script":"6a09696e7465726c696e6b208b26fcfb0fb90183db227df3795f3d3612ddd104ade15c7bec1dafcd3306facb","address":null},{"value":99945209,"script":"76a914f49fabbd72a3ead32bc48df1edbdef0180aac01388ac","address":"bchtest:qr6fl2aaw23745etcjxlrmdaauqcp2kqzv3d9jg2k7"}],"locktime":0,"hex":"010000000120c1f9d39fa0fe06829db96e6b051b95bd6d5467f7b454a592612fc9bc12fb61010000006a47304402200c085a22dda302fb08cfcd5447ec02ba9a568d6773062991207cfe6856700df102201267f26dc4160a541412881d66ec11c7dd7f944ceafde4c3017eab15ec2b4bf1412102726e7623f116368ab5c52ecbb402e8755a9ca3ad6eba90c579fb29243a2dd1a6feffffff0200000000000000002c6a09696e7465726c696e6b208b26fcfb0fb90183db227df3795f3d3612ddd104ade15c7bec1dafcd3306facbf90af505000000001976a914f49fabbd72a3ead32bc48df1edbdef0180aac01388ac00000000"}]